{
  "_format": "hh-sol-artifact-1",
  "contractName": "BogaIdentity",
  "sourceName": "contracts/BogaIdentity.sol",
  "abi": [
    {
      "inputs": [],
      "stateMutability": "nonpayable",
      "type": "constructor"
    },
    {
      "inputs": [],
      "name": "AlreadyHasIdentity",
      "type": "error"
    },
    {
      "inputs": [
        {
          "internalType": "address",
          "name": "sender",
          "type": "address"
        },
        {
          "internalType": "uint256",
          "name": "tokenId",
          "type": "uint256"
        },
        {
          "internalType": "address",
          "name": "owner",
          "type": "address"
        }
      ],
      "name": "ERC721IncorrectOwner",
      "type": "error"
    },
    {
      "inputs": [
        {
          "internalType": "address",
          "name": "operator",
          "type": "address"
        },
        {
          "internalType": "uint256",
          "name": "tokenId",
          "type": "uint256"
        }
      ],
      "name": "ERC721InsufficientApproval",
      "type": "error"
    },
    {
      "inputs": [
        {
          "internalType": "address",
          "name": "approver",
          "type": "address"
        }
      ],
      "name": "ERC721InvalidApprover",
      "type": "error"
    },
    {
      "inputs": [
        {
          "internalType": "address",
          "name": "operator",
          "type": "address"
        }
      ],
      "name": "ERC721InvalidOperator",
      "type": "error"
    },
    {
      "inputs": [
        {
          "internalType": "address",
          "name": "owner",
          "type": "address"
        }
      ],
      "name": "ERC721InvalidOwner",
      "type": "error"
    },
    {
      "inputs": [
        {
          "internalType": "address",
          "name": "receiver",
          "type": "address"
        }
      ],
      "name": "ERC721InvalidReceiver",
      "type": "error"
    },
    {
      "inputs": [
        {
          "internalType": "address",
          "name": "sender",
          "type": "address"
        }
      ],
      "name": "ERC721InvalidSender",
      "type": "error"
    },
    {
      "inputs": [
        {
          "internalType": "uint256",
          "name": "tokenId",
          "type": "uint256"
        }
      ],
      "name": "ERC721NonexistentToken",
      "type": "error"
    },
    {
      "inputs": [],
      "name": "IdentityFrozen",
      "type": "error"
    },
    {
      "inputs": [],
      "name": "NotAuthorizedSPPG",
      "type": "error"
    },
    {
      "inputs": [
        {
          "internalType": "address",
          "name": "owner",
          "type": "address"
        }
      ],
      "name": "OwnableInvalidOwner",
      "type": "error"
    },
    {
      "inputs": [
        {
          "internalType": "address",
          "name": "account",
          "type": "address"
        }
      ],
      "name": "OwnableUnauthorizedAccount",
      "type": "error"
    },
    {
      "inputs": [],
      "name": "SoulboundNoTransfer",
      "type": "error"
    },
    {
      "anonymous": false,
      "inputs": [
        {
          "indexed": true,
          "internalType": "address",
          "name": "owner",
          "type": "address"
        },
        {
          "indexed": true,
          "internalType": "address",
          "name": "approved",
          "type": "address"
        },
        {
          "indexed": true,
          "internalType": "uint256",
          "name": "tokenId",
          "type": "uint256"
        }
      ],
      "name": "Approval",
      "type": "event"
    },
    {
      "anonymous": false,
      "inputs": [
        {
          "indexed": true,
          "internalType": "address",
          "name": "owner",
          "type": "address"
        },
        {
          "indexed": true,
          "internalType": "address",
          "name": "operator",
          "type": "address"
        },
        {
          "indexed": false,
          "internalType": "bool",
          "name": "approved",
          "type": "bool"
        }
      ],
      "name": "ApprovalForAll",
      "type": "event"
    },
    {
      "anonymous": false,
      "inputs": [
        {
          "indexed": true,
          "internalType": "address",
          "name": "sppgMaster",
          "type": "address"
        },
        {
          "indexed": true,
          "internalType": "address",
          "name": "employee",
          "type": "address"
        },
        {
          "indexed": false,
          "internalType": "string",
          "name": "role",
          "type": "string"
        }
      ],
      "name": "EmployeeAdded",
      "type": "event"
    },
    {
      "anonymous": false,
      "inputs": [
        {
          "indexed": true,
          "internalType": "address",
          "name": "sppgMaster",
          "type": "address"
        },
        {
          "indexed": true,
          "internalType": "address",
          "name": "employee",
          "type": "address"
        }
      ],
      "name": "EmployeeRevoked",
      "type": "event"
    },
    {
      "anonymous": false,
      "inputs": [
        {
          "indexed": true,
          "internalType": "address",
          "name": "wallet",
          "type": "address"
        },
        {
          "indexed": false,
          "internalType": "uint256",
          "name": "tokenId",
          "type": "uint256"
        },
        {
          "indexed": false,
          "internalType": "enum BogaIdentity.Role",
          "name": "role",
          "type": "uint8"
        },
        {
          "indexed": false,
          "internalType": "string",
          "name": "docHash",
          "type": "string"
        }
      ],
      "name": "IdentityMinted",
      "type": "event"
    },
    {
      "anonymous": false,
      "inputs": [
        {
          "indexed": true,
          "internalType": "address",
          "name": "wallet",
          "type": "address"
        }
      ],
      "name": "IdentityRevoked",
      "type": "event"
    },
    {
      "anonymous": false,
      "inputs": [
        {
          "indexed": true,
          "internalType": "address",
          "name": "previousOwner",
          "type": "address"
        },
        {
          "indexed": true,
          "internalType": "address",
          "name": "newOwner",
          "type": "address"
        }
      ],
      "name": "OwnershipTransferred",
      "type": "event"
    },
    {
      "anonymous": false,
      "inputs": [
        {
          "indexed": true,
          "internalType": "address",
          "name": "from",
          "type": "address"
        },
        {
          "indexed": true,
          "internalType": "address",
          "name": "to",
          "type": "address"
        },
        {
          "indexed": true,
          "internalType": "uint256",
          "name": "tokenId",
          "type": "uint256"
        }
      ],
      "name": "Transfer",
      "type": "event"
    },
    {
      "inputs": [
        {
          "internalType": "address",
          "name": "employeeWallet",
          "type": "address"
        },
        {
          "internalType": "string",
          "name": "empRole",
          "type": "string"
        },
        {
          "internalType": "string",
          "name": "empName",
          "type": "string"
        }
      ],
      "name": "addEmployee",
      "outputs": [],
      "stateMutability": "nonpayable",
      "type": "function"
    },
    {
      "inputs": [
        {
          "internalType": "address",
          "name": "to",
          "type": "address"
        },
        {
          "internalType": "uint256",
          "name": "tokenId",
          "type": "uint256"
        }
      ],
      "name": "approve",
      "outputs": [],
      "stateMutability": "nonpayable",
      "type": "function"
    },
    {
      "inputs": [
        {
          "internalType": "address",
          "name": "owner",
          "type": "address"
        }
      ],
      "name": "balanceOf",
      "outputs": [
        {
          "internalType": "uint256",
          "name": "",
          "type": "uint256"
        }
      ],
      "stateMutability": "view",
      "type": "function"
    },
    {
      "inputs": [
        {
          "internalType": "uint256",
          "name": "tokenId",
          "type": "uint256"
        }
      ],
      "name": "getApproved",
      "outputs": [
        {
          "internalType": "address",
          "name": "",
          "type": "address"
        }
      ],
      "stateMutability": "view",
      "type": "function"
    },
    {
      "inputs": [
        {
          "internalType": "address",
          "name": "owner",
          "type": "address"
        },
        {
          "internalType": "address",
          "name": "operator",
          "type": "address"
        }
      ],
      "name": "isApprovedForAll",
      "outputs": [
        {
          "internalType": "bool",
          "name": "",
          "type": "bool"
        }
      ],
      "stateMutability": "view",
      "type": "function"
    },
    {
      "inputs": [
        {
          "internalType": "address",
          "name": "to",
          "type": "address"
        },
        {
          "internalType": "enum BogaIdentity.Role",
          "name": "_role",
          "type": "uint8"
        },
        {
          "internalType": "string",
          "name": "_docHash",
          "type": "string"
        }
      ],
      "name": "mintIdentity",
      "outputs": [
        {
          "internalType": "uint256",
          "name": "",
          "type": "uint256"
        }
      ],
      "stateMutability": "nonpayable",
      "type": "function"
    },
    {
      "inputs": [],
      "name": "name",
      "outputs": [
        {
          "internalType": "string",
          "name": "",
          "type": "string"
        }
      ],
      "stateMutability": "view",
      "type": "function"
    },
    {
      "inputs": [],
      "name": "owner",
      "outputs": [
        {
          "internalType": "address",
          "name": "",
          "type": "address"
        }
      ],
      "stateMutability": "view",
      "type": "function"
    },
    {
      "inputs": [
        {
          "internalType": "uint256",
          "name": "tokenId",
          "type": "uint256"
        }
      ],
      "name": "ownerOf",
      "outputs": [
        {
          "internalType": "address",
          "name": "",
          "type": "address"
        }
      ],
      "stateMutability": "view",
      "type": "function"
    },
    {
      "inputs": [],
      "name": "renounceOwnership",
      "outputs": [],
      "stateMutability": "nonpayable",
      "type": "function"
    },
    {
      "inputs": [
        {
          "internalType": "address",
          "name": "employeeWallet",
          "type": "address"
        }
      ],
      "name": "revokeEmployee",
      "outputs": [],
      "stateMutability": "nonpayable",
      "type": "function"
    },
    {
      "inputs": [
        {
          "internalType": "address",
          "name": "wallet",
          "type": "address"
        }
      ],
      "name": "revokeMasterIdentity",
      "outputs": [],
      "stateMutability": "nonpayable",
      "type": "function"
    },
    {
      "inputs": [
        {
          "internalType": "address",
          "name": "from",
          "type": "address"
        },
        {
          "internalType": "address",
          "name": "to",
          "type": "address"
        },
        {
          "internalType": "uint256",
          "name": "tokenId",
          "type": "uint256"
        }
      ],
      "name": "safeTransferFrom",
      "outputs": [],
      "stateMutability": "nonpayable",
      "type": "function"
    },
    {
      "inputs": [
        {
          "internalType": "address",
          "name": "from",
          "type": "address"
        },
        {
          "internalType": "address",
          "name": "to",
          "type": "address"
        },
        {
          "internalType": "uint256",
          "name": "tokenId",
          "type": "uint256"
        },
        {
          "internalType": "bytes",
          "name": "data",
          "type": "bytes"
        }
      ],
      "name": "safeTransferFrom",
      "outputs": [],
      "stateMutability": "nonpayable",
      "type": "function"
    },
    {
      "inputs": [
        {
          "internalType": "address",
          "name": "operator",
          "type": "address"
        },
        {
          "internalType": "bool",
          "name": "approved",
          "type": "bool"
        }
      ],
      "name": "setApprovalForAll",
      "outputs": [],
      "stateMutability": "nonpayable",
      "type": "function"
    },
    {
      "inputs": [
        {
          "internalType": "address",
          "name": "",
          "type": "address"
        },
        {
          "internalType": "address",
          "name": "",
          "type": "address"
        }
      ],
      "name": "sppgEmployees",
      "outputs": [
        {
          "internalType": "bool",
          "name": "isActive",
          "type": "bool"
        },
        {
          "internalType": "string",
          "name": "role",
          "type": "string"
        },
        {
          "internalType": "string",
          "name": "name",
          "type": "string"
        }
      ],
      "stateMutability": "view",
      "type": "function"
    },
    {
      "inputs": [
        {
          "internalType": "bytes4",
          "name": "interfaceId",
          "type": "bytes4"
        }
      ],
      "name": "supportsInterface",
      "outputs": [
        {
          "internalType": "bool",
          "name": "",
          "type": "bool"
        }
      ],
      "stateMutability": "view",
      "type": "function"
    },
    {
      "inputs": [],
      "name": "symbol",
      "outputs": [
        {
          "internalType": "string",
          "name": "",
          "type": "string"
        }
      ],
      "stateMutability": "view",
      "type": "function"
    },
    {
      "inputs": [
        {
          "internalType": "uint256",
          "name": "tokenId",
          "type": "uint256"
        }
      ],
      "name": "tokenURI",
      "outputs": [
        {
          "internalType": "string",
          "name": "",
          "type": "string"
        }
      ],
      "stateMutability": "view",
      "type": "function"
    },
    {
      "inputs": [
        {
          "internalType": "address",
          "name": "from",
          "type": "address"
        },
        {
          "internalType": "address",
          "name": "to",
          "type": "address"
        },
        {
          "internalType": "uint256",
          "name": "tokenId",
          "type": "uint256"
        }
      ],
      "name": "transferFrom",
      "outputs": [],
      "stateMutability": "nonpayable",
      "type": "function"
    },
    {
      "inputs": [
        {
          "internalType": "address",
          "name": "newOwner",
          "type": "address"
        }
      ],
      "name": "transferOwnership",
      "outputs": [],
      "stateMutability": "nonpayable",
      "type": "function"
    },
    {
      "inputs": [
        {
          "internalType": "address",
          "name": "",
          "type": "address"
        }
      ],
      "name": "userIdentities",
      "outputs": [
        {
          "internalType": "uint256",
          "name": "tokenId",
          "type": "uint256"
        },
        {
          "internalType": "enum BogaIdentity.Role",
          "name": "roleId",
          "type": "uint8"
        },
        {
          "internalType": "string",
          "name": "documentHash",
          "type": "string"
        },
        {
          "internalType": "bool",
          "name": "isActive",
          "type": "bool"
        }
      ],
      "stateMutability": "view",
      "type": "function"
    },
    {
      "inputs": [
        {
          "internalType": "address",
          "name": "sppgMaster",
          "type": "address"
        },
        {
          "internalType": "address",
          "name": "employeeWallet",
          "type": "address"
        }
      ],
      "name": "verifyEmployeeAccess",
      "outputs": [
        {
          "internalType": "bool",
          "name": "isActive",
          "type": "bool"
        },
        {
          "internalType": "string",
          "name": "role",
          "type": "string"
        }
      ],
      "stateMutability": "view",
      "type": "function"
    }
  ],
  "bytecode": "0x608060405234801561000f575f5ffd5b50336040518060400160405280601681526020017f424f4741205665726966696564204964656e7469747900000000000000000000815250604051806040016040528060048152602001631095925160e21b815250815f908161007291906101a7565b50600161007f82826101a7565b5050506001600160a01b0381166100af57604051631e4fbdf760e01b81525f600482015260240160405180910390fd5b6100b8816100be565b50610261565b600680546001600160a01b038381166001600160a01b0319831681179093556040519116919082907f8be0079c531659141344cd1fd0a4f28419497f9722a3daafe3b4186f6b6457e0905f90a35050565b634e487b7160e01b5f52604160045260245ffd5b600181811c9082168061013757607f821691505b60208210810361015557634e487b7160e01b5f52602260045260245ffd5b50919050565b601f8211156101a257805f5260205f20601f840160051c810160208510156101805750805b601f840160051c820191505b8181101561019f575f815560010161018c565b50505b505050565b81516001600160401b038111156101c0576101c061010f565b6101d4816101ce8454610123565b8461015b565b6020601f821160018114610206575f83156101ef5750848201515b5f19600385901b1c1916600184901b17845561019f565b5f84815260208120601f198516915b828110156102355787850151825560209485019460019092019101610215565b508482101561025257868401515f19600387901b60f8161c191681555b50505050600190811b01905550565b611d158061026e5f395ff3fe608060405234801561000f575f5ffd5b5060043610610148575f3560e01c8063715018a6116100bf578063b6178fc411610079578063b6178fc4146102d4578063b88d4fde146102f6578063c87b56dd14610309578063e63a26151461031c578063e985e9c51461032f578063f2fde38b14610342575f5ffd5b8063715018a61461027a5780637263c74c146102825780638da5cb5b1461029557806395d89b41146102a6578063a22cb465146102ae578063a687a370146102c1575f5ffd5b806323b872dd1161011057806323b872dd146101ec57806342842e0e146101ff5780634c9026151461021257806355b8d45c146102335780636352211e1461025457806370a0823114610267575f5ffd5b806301ffc9a71461014c57806306fdde0314610174578063081812fc14610189578063095ea7b3146101b45780631b194549146101c9575b5f5ffd5b61015f61015a36600461166c565b610355565b60405190151581526020015b60405180910390f35b61017c6103a6565b60405161016b91906116b5565b61019c6101973660046116c7565b610435565b6040516001600160a01b03909116815260200161016b565b6101c76101c23660046116f9565b61045c565b005b6101dc6101d7366004611721565b61046b565b60405161016b949392919061176e565b6101c76101fa3660046117a6565b610520565b6101c761020d3660046117a6565b6105ae565b61022561022036600461181e565b6105cd565b60405190815260200161016b565b610246610241366004611880565b610799565b60405161016b9291906118b1565b61019c6102623660046116c7565b610915565b610225610275366004611721565b61091f565b6101c7610964565b6101c7610290366004611721565b610977565b6006546001600160a01b031661019c565b61017c6109ca565b6101c76102bc3660046118cb565b6109d9565b6101c76102cf366004611721565b6109e4565b6102e76102e2366004611880565b610ab1565b60405161016b93929190611904565b6101c761030436600461194e565b610bee565b61017c6103173660046116c7565b610c06565b6101c761032a366004611a2b565b610c77565b61015f61033d366004611880565b610e25565b6101c7610350366004611721565b610e52565b5f6001600160e01b031982166380ac58cd60e01b148061038557506001600160e01b03198216635b5e139f60e01b145b806103a057506301ffc9a760e01b6001600160e01b03198316145b92915050565b60605f80546103b490611aab565b80601f01602080910402602001604051908101604052809291908181526020018280546103e090611aab565b801561042b5780601f106104025761010080835404028352916020019161042b565b820191905f5260205f20905b81548152906001019060200180831161040e57829003601f168201915b5050505050905090565b5f61043f82610e8f565b505f828152600460205260409020546001600160a01b03166103a0565b610467828233610ec7565b5050565b60086020525f9081526040902080546001820154600283018054929360ff9092169261049690611aab565b80601f01602080910402602001604051908101604052809291908181526020018280546104c290611aab565b801561050d5780601f106104e45761010080835404028352916020019161050d565b820191905f5260205f20905b8154815290600101906020018083116104f057829003601f168201915b5050506003909301549192505060ff1684565b6001600160a01b03821661054e57604051633250574960e11b81525f60048201526024015b60405180910390fd5b5f61055a838333610ed4565b9050836001600160a01b0316816001600160a01b0316146105a8576040516364283d7b60e01b81526001600160a01b0380861660048301526024820184905282166044820152606401610545565b50505050565b6105c883838360405180602001604052805f815250610bee565b505050565b5f6105d6610f34565b6001600160a01b0385165f9081526008602052604090206003015460ff168061062c57506001600160a01b0385165f9081526008602052604081206001015460ff1660048111156106295761062961173a565b14155b1561064a5760405163abbe503560e01b815260040160405180910390fd5b600780545f918261065a83611ae3565b91905055905061066a8682610f61565b604051806080016040528082815260200186600481111561068d5761068d61173a565b815260200185858080601f0160208091040260200160405190810160405280939291908181526020018383808284375f9201829052509385525050600160209384018190526001600160a01b038b16835260088452604090922084518155928401518383018054919390925060ff19909116908360048111156107125761071261173a565b02179055506040820151600282019061072b9082611b4b565b50606091909101516003909101805460ff19169115159190911790556040516001600160a01b038716907ffb7cbe551d42d19c5058f4e0b1e8f79f3df3e40642b30903da52c6893f4d4df290610788908490899089908990611c2e565b60405180910390a295945050505050565b6001600160a01b038083165f908152600960209081526040808320938516835292815282822083516060818101909552815460ff16151581526001820180549495948694929392840191906107ed90611aab565b80601f016020809104026020016040519081016040528092919081815260200182805461081990611aab565b80156108645780601f1061083b57610100808354040283529160200191610864565b820191905f5260205f20905b81548152906001019060200180831161084757829003601f168201915b5050505050815260200160028201805461087d90611aab565b80601f01602080910402602001604051908101604052809291908181526020018280546108a990611aab565b80156108f45780601f106108cb576101008083540402835291602001916108f4565b820191905f5260205f20905b8154815290600101906020018083116108d757829003601f168201915b5050505050815250509050805f0151816020015192509250505b9250929050565b5f6103a082610e8f565b5f6001600160a01b038216610949576040516322718ad960e21b81525f6004820152602401610545565b506001600160a01b03165f9081526003602052604090205490565b61096c610f34565b6109755f610f7a565b565b61097f610f34565b6001600160a01b0381165f81815260086020526040808220600301805460ff19169055517fccf550e579fbeb7d56da9a0175f8d4526535cab139e73b592516f1916d4075dd9190a250565b6060600180546103b490611aab565b610467338383610fcb565b6002335f9081526008602052604090206001015460ff166004811115610a0c57610a0c61173a565b14610a2a57604051639c4376db60e01b815260040160405180910390fd5b335f9081526008602052604090206003015460ff16610a5c576040516361d5de3d60e01b815260040160405180910390fd5b335f8181526009602090815260408083206001600160a01b0386168085529252808320805460ff19169055519092917fe539c2a329daf4dca068d568ac5b4475ec26a732f85cda3e0f0bbd8d5746ee8591a350565b600960209081525f92835260408084209091529082529020805460018201805460ff9092169291610ae190611aab565b80601f0160208091040260200160405190810160405280929190818152602001828054610b0d90611aab565b8015610b585780601f10610b2f57610100808354040283529160200191610b58565b820191905f5260205f20905b815481529060010190602001808311610b3b57829003601f168201915b505050505090806002018054610b6d90611aab565b80601f0160208091040260200160405190810160405280929190818152602001828054610b9990611aab565b8015610be45780601f10610bbb57610100808354040283529160200191610be4565b820191905f5260205f20905b815481529060010190602001808311610bc757829003601f168201915b5050505050905083565b610bf9848484610520565b6105a83385858585611092565b6060610c1182610e8f565b505f610c2760408051602081019091525f815290565b90505f815111610c455760405180602001604052805f815250610c70565b80610c4f846111ba565b604051602001610c60929190611c6b565b6040516020818303038152906040525b9392505050565b6002335f9081526008602052604090206001015460ff166004811115610c9f57610c9f61173a565b14610cbd57604051639c4376db60e01b815260040160405180910390fd5b335f9081526008602052604090206003015460ff16610cef576040516361d5de3d60e01b815260040160405180910390fd5b604051806060016040528060011515815260200185858080601f0160208091040260200160405190810160405280939291908181526020018383808284375f92019190915250505090825250604080516020601f8601819004810282018101909252848152918101919085908590819084018382808284375f9201829052509390945250503381526009602090815260408083206001600160a01b038b16845282529091208351815460ff1916901515178155908301519091506001820190610db89082611b4b565b5060408201516002820190610dcd9082611b4b565b50905050846001600160a01b0316336001600160a01b03167fc7b8ebf52ebf4d1384b6ec0c9b34e4f01dfe3bd1aacc6211495d69f7c66e5af38686604051610e16929190611c7f565b60405180910390a35050505050565b6001600160a01b039182165f90815260056020908152604080832093909416825291909152205460ff1690565b610e5a610f34565b6001600160a01b038116610e8357604051631e4fbdf760e01b81525f6004820152602401610545565b610e8c81610f7a565b50565b5f818152600260205260408120546001600160a01b0316806103a057604051637e27328960e01b815260048101849052602401610545565b6105c8838383600161124a565b5f828152600260205260408120546001600160a01b03168015801590610f0257506001600160a01b03851615155b15610f2057604051636ef3a84160e11b815260040160405180910390fd5b610f2b85858561134e565b95945050505050565b6006546001600160a01b031633146109755760405163118cdaa760e01b8152336004820152602401610545565b610467828260405180602001604052805f815250611440565b600680546001600160a01b038381166001600160a01b0319831681179093556040519116919082907f8be0079c531659141344cd1fd0a4f28419497f9722a3daafe3b4186f6b6457e0905f90a35050565b6001600160a01b038316610ff45760405163a9fbf51f60e01b81525f6004820152602401610545565b6001600160a01b03821661102657604051630b61174360e31b81526001600160a01b0383166004820152602401610545565b6001600160a01b038381165f81815260056020908152604080832094871680845294825291829020805460ff191686151590811790915591519182527f17307eab39ab6107e8899845ad3d59bd9653f200f220920489ca2b5937696c31910160405180910390a3505050565b6001600160a01b0383163b156111b357604051630a85bd0160e11b81526001600160a01b0384169063150b7a02906110d4908890889087908790600401611c92565b6020604051808303815f875af192505050801561110e575060408051601f3d908101601f1916820190925261110b91810190611cc4565b60015b611175573d80801561113b576040519150601f19603f3d011682016040523d82523d5f602084013e611140565b606091505b5080515f0361116d57604051633250574960e11b81526001600160a01b0385166004820152602401610545565b805160208201fd5b6001600160e01b03198116630a85bd0160e11b146111b157604051633250574960e11b81526001600160a01b0385166004820152602401610545565b505b5050505050565b60605f6111c683611457565b60010190505f8167ffffffffffffffff8111156111e5576111e561193a565b6040519080825280601f01601f19166020018201604052801561120f576020820181803683370190505b5090508181016020015b5f19016f181899199a1a9b1b9c1cb0b131b232b360811b600a86061a8153600a850494508461121957509392505050565b808061125e57506001600160a01b03821615155b1561131f575f61126d84610e8f565b90506001600160a01b038316158015906112995750826001600160a01b0316816001600160a01b031614155b80156112ac57506112aa8184610e25565b155b156112d55760405163a9fbf51f60e01b81526001600160a01b0384166004820152602401610545565b811561131d5783856001600160a01b0316826001600160a01b03167f8c5be1e5ebec7d5bd14f71427d1e84f3dd0314c0f7b2291e5b200ac8c7c3b92560405160405180910390a45b505b50505f90815260046020526040902080546001600160a01b0319166001600160a01b0392909216919091179055565b5f828152600260205260408120546001600160a01b039081169083161561137a5761137a81848661152e565b6001600160a01b038116156113b4576113955f855f5f61124a565b6001600160a01b0381165f90815260036020526040902080545f190190555b6001600160a01b038516156113e2576001600160a01b0385165f908152600360205260409020805460010190555b5f8481526002602052604080822080546001600160a01b0319166001600160a01b0389811691821790925591518793918516917fddf252ad1be2c89b69c2b068fc378daa952ba7f163c4a11628f55a4df523b3ef91a4949350505050565b61144a8383611592565b6105c8335f858585611092565b5f8072184f03e93ff9f4daa797ed6e38ed64bf6a1f0160401b83106114955772184f03e93ff9f4daa797ed6e38ed64bf6a1f0160401b830492506040015b6d04ee2d6d415b85acef810000000083106114c1576d04ee2d6d415b85acef8100000000830492506020015b662386f26fc1000083106114df57662386f26fc10000830492506010015b6305f5e10083106114f7576305f5e100830492506008015b612710831061150b57612710830492506004015b6064831061151d576064830492506002015b600a83106103a05760010192915050565b6115398383836115f3565b6105c8576001600160a01b03831661156757604051637e27328960e01b815260048101829052602401610545565b60405163177e802f60e01b81526001600160a01b038316600482015260248101829052604401610545565b6001600160a01b0382166115bb57604051633250574960e11b81525f6004820152602401610545565b5f6115c783835f610ed4565b90506001600160a01b038116156105c8576040516339e3563760e11b81525f6004820152602401610545565b5f6001600160a01b0383161580159061164f5750826001600160a01b0316846001600160a01b0316148061162c575061162c8484610e25565b8061164f57505f828152600460205260409020546001600160a01b038481169116145b949350505050565b6001600160e01b031981168114610e8c575f5ffd5b5f6020828403121561167c575f5ffd5b8135610c7081611657565b5f81518084528060208401602086015e5f602082860101526020601f19601f83011685010191505092915050565b602081525f610c706020830184611687565b5f602082840312156116d7575f5ffd5b5035919050565b80356001600160a01b03811681146116f4575f5ffd5b919050565b5f5f6040838503121561170a575f5ffd5b611713836116de565b946020939093013593505050565b5f60208284031215611731575f5ffd5b610c70826116de565b634e487b7160e01b5f52602160045260245ffd5b6005811061176a57634e487b7160e01b5f52602160045260245ffd5b9052565b84815261177e602082018561174e565b608060408201525f6117936080830185611687565b9050821515606083015295945050505050565b5f5f5f606084860312156117b8575f5ffd5b6117c1846116de565b92506117cf602085016116de565b929592945050506040919091013590565b5f5f83601f8401126117f0575f5ffd5b50813567ffffffffffffffff811115611807575f5ffd5b60208301915083602082850101111561090e575f5ffd5b5f5f5f5f60608587031215611831575f5ffd5b61183a856116de565b935060208501356005811061184d575f5ffd5b9250604085013567ffffffffffffffff811115611868575f5ffd5b611874878288016117e0565b95989497509550505050565b5f5f60408385031215611891575f5ffd5b61189a836116de565b91506118a8602084016116de565b90509250929050565b8215158152604060208201525f61164f6040830184611687565b5f5f604083850312156118dc575f5ffd5b6118e5836116de565b9150602083013580151581146118f9575f5ffd5b809150509250929050565b8315158152606060208201525f61191e6060830185611687565b82810360408401526119308185611687565b9695505050505050565b634e487b7160e01b5f52604160045260245ffd5b5f5f5f5f60808587031215611961575f5ffd5b61196a856116de565b9350611978602086016116de565b925060408501359150606085013567ffffffffffffffff81111561199a575f5ffd5b8501601f810187136119aa575f5ffd5b803567ffffffffffffffff8111156119c4576119c461193a565b604051601f8201601f19908116603f0116810167ffffffffffffffff811182821017156119f3576119f361193a565b604052818152828201602001891015611a0a575f5ffd5b816020840160208301375f6020838301015280935050505092959194509250565b5f5f5f5f5f60608688031215611a3f575f5ffd5b611a48866116de565b9450602086013567ffffffffffffffff811115611a63575f5ffd5b611a6f888289016117e0565b909550935050604086013567ffffffffffffffff811115611a8e575f5ffd5b611a9a888289016117e0565b969995985093965092949392505050565b600181811c90821680611abf57607f821691505b602082108103611add57634e487b7160e01b5f52602260045260245ffd5b50919050565b5f60018201611b0057634e487b7160e01b5f52601160045260245ffd5b5060010190565b601f8211156105c857805f5260205f20601f840160051c81016020851015611b2c5750805b601f840160051c820191505b818110156111b3575f8155600101611b38565b815167ffffffffffffffff811115611b6557611b6561193a565b611b7981611b738454611aab565b84611b07565b6020601f821160018114611bab575f8315611b945750848201515b5f19600385901b1c1916600184901b1784556111b3565b5f84815260208120601f198516915b82811015611bda5787850151825560209485019460019092019101611bba565b5084821015611bf757868401515f19600387901b60f8161c191681555b50505050600190811b01905550565b81835281816020850137505f828201602090810191909152601f909101601f19169091010190565b848152611c3e602082018561174e565b606060408201525f611930606083018486611c06565b5f81518060208401855e5f93019283525090919050565b5f61164f611c798386611c54565b84611c54565b602081525f61164f602083018486611c06565b6001600160a01b03858116825284166020820152604081018390526080606082018190525f9061193090830184611687565b5f60208284031215611cd4575f5ffd5b8151610c708161165756fea2646970667358221220a0b379036ad94d9b5dbf629251e822e2f6c532fc31c9376190fe5ee30821e19064736f6c634300081c0033",
  "linkReferences": {},
  "deployedLinkReferences": {}
}