{
  "_format": "hh-sol-artifact-1",
  "contractName": "BogaVendorRegistry",
  "sourceName": "contracts/BogaVendorRegistry.sol",
  "abi": [
    {
      "inputs": [],
      "stateMutability": "nonpayable",
      "type": "constructor"
    },
    {
      "anonymous": false,
      "inputs": [
        {
          "indexed": true,
          "internalType": "address",
          "name": "vendorWallet",
          "type": "address"
        },
        {
          "indexed": false,
          "internalType": "string",
          "name": "nibNumber",
          "type": "string"
        },
        {
          "indexed": false,
          "internalType": "string",
          "name": "documentHash",
          "type": "string"
        }
      ],
      "name": "VendorRegistered",
      "type": "event"
    },
    {
      "anonymous": false,
      "inputs": [
        {
          "indexed": true,
          "internalType": "address",
          "name": "vendorWallet",
          "type": "address"
        },
        {
          "indexed": false,
          "internalType": "uint256",
          "name": "aiScore",
          "type": "uint256"
        },
        {
          "indexed": false,
          "internalType": "bool",
          "name": "status",
          "type": "bool"
        }
      ],
      "name": "VendorVerified",
      "type": "event"
    },
    {
      "inputs": [],
      "name": "admin_bgn",
      "outputs": [
        {
          "internalType": "address",
          "name": "",
          "type": "address"
        }
      ],
      "stateMutability": "view",
      "type": "function"
    },
    {
      "inputs": [
        {
          "internalType": "address",
          "name": "_vendorWallet",
          "type": "address"
        },
        {
          "internalType": "string",
          "name": "_hashToVerify",
          "type": "string"
        }
      ],
      "name": "checkDocumentIntegrity",
      "outputs": [
        {
          "internalType": "bool",
          "name": "",
          "type": "bool"
        }
      ],
      "stateMutability": "view",
      "type": "function"
    },
    {
      "inputs": [
        {
          "internalType": "address",
          "name": "_vendorWallet",
          "type": "address"
        },
        {
          "internalType": "string",
          "name": "_nibNumber",
          "type": "string"
        },
        {
          "internalType": "string",
          "name": "_docHash",
          "type": "string"
        }
      ],
      "name": "registerVendor",
      "outputs": [],
      "stateMutability": "nonpayable",
      "type": "function"
    },
    {
      "inputs": [
        {
          "internalType": "address",
          "name": "",
          "type": "address"
        }
      ],
      "name": "vendors",
      "outputs": [
        {
          "internalType": "string",
          "name": "nibNumber",
          "type": "string"
        },
        {
          "internalType": "string",
          "name": "combinedDocumentHash",
          "type": "string"
        },
        {
          "internalType": "uint256",
          "name": "aiConfidenceScore",
          "type": "uint256"
        },
        {
          "internalType": "bool",
          "name": "isApproved",
          "type": "bool"
        },
        {
          "internalType": "bool",
          "name": "isRegistered",
          "type": "bool"
        }
      ],
      "stateMutability": "view",
      "type": "function"
    },
    {
      "inputs": [
        {
          "internalType": "address",
          "name": "_vendorWallet",
          "type": "address"
        },
        {
          "internalType": "uint256",
          "name": "_aiScore",
          "type": "uint256"
        },
        {
          "internalType": "bool",
          "name": "_isApproved",
          "type": "bool"
        }
      ],
      "name": "verifyVendor",
      "outputs": [],
      "stateMutability": "nonpayable",
      "type": "function"
    }
  ],
  "bytecode": "0x6080604052348015600e575f5ffd5b505f80546001600160a01b03191633179055610a3e8061002d5f395ff3fe608060405234801561000f575f5ffd5b5060043610610055575f3560e01c80630925cafc1461005957806327e30c36146100885780635a5de80f146100ac5780638c04066c146100cf578063df4c1685146100e4575b5f5ffd5b5f5461006b906001600160a01b031681565b6040516001600160a01b0390911681526020015b60405180910390f35b61009b6100963660046105e4565b6100f7565b60405161007f959493929190610632565b6100bf6100ba366004610715565b610237565b604051901515815260200161007f565b6100e26100dd366004610760565b61031a565b005b6100e26100f23660046107d4565b61048a565b60016020525f908152604090208054819061011190610815565b80601f016020809104026020016040519081016040528092919081815260200182805461013d90610815565b80156101885780601f1061015f57610100808354040283529160200191610188565b820191905f5260205f20905b81548152906001019060200180831161016b57829003601f168201915b50505050509080600101805461019d90610815565b80601f01602080910402602001604051908101604052809291908181526020018280546101c990610815565b80156102145780601f106101eb57610100808354040283529160200191610214565b820191905f5260205f20905b8154815290600101906020018083116101f757829003601f168201915b50505050600283015460039093015491929160ff80821692506101009091041685565b6001600160a01b0382165f90815260016020526040812060030154610100900460ff166102ab5760405162461bcd60e51b815260206004820181905260248201527f422e4f2e472e413a2056656e646f7220746964616b20646974656d756b616e2160448201526064015b60405180910390fd5b816040516020016102bc919061084d565b60408051601f1981840301815282825280516020918201206001600160a01b0387165f908152600180845293902090936102fb93919091019101610863565b6040516020818303038152906040528051906020012014905092915050565b6001600160a01b0383165f90815260016020526040902060030154610100900460ff161561039f5760405162461bcd60e51b815260206004820152602c60248201527f422e4f2e472e413a2056656e646f72207375646168207465726461667461722060448201526b6469206a6172696e67616e2160a01b60648201526084016102a2565b6040805160a08101825283815260208082018490525f828401819052606083018190526001608084018190526001600160a01b038816825290915291909120815181906103ec9082610920565b50602082015160018201906104019082610920565b50604082810151600283015560608301516003909201805460809094015115156101000261ff00199315159390931661ffff199094169390931791909117909155516001600160a01b038416907f6a8800d7464c3933e9f1241684cbae034394a3a73e84fa164a882037ffbe2aea9061047d90859085906109db565b60405180910390a2505050565b5f546001600160a01b031633146104f55760405162461bcd60e51b815260206004820152602960248201527f422e4f2e472e413a20416b736573204469746f6c616b212048616e796120506560448201526836b2b934b73a30b41760b91b60648201526084016102a2565b6001600160a01b0383165f90815260016020526040902060030154610100900460ff166105645760405162461bcd60e51b815260206004820181905260248201527f422e4f2e472e413a2056656e646f722062656c756d207465726461667461722160448201526064016102a2565b6001600160a01b0383165f8181526001602090815260409182902060028101869055600301805460ff19168515159081179091558251868152918201527f714d9a23f56800a186a42e3f7bc317d6f6b0c1e08563679cd7766bcfabde12f4910161047d565b80356001600160a01b03811681146105df575f5ffd5b919050565b5f602082840312156105f4575f5ffd5b6105fd826105c9565b9392505050565b5f81518084528060208401602086015e5f602082860101526020601f19601f83011685010191505092915050565b60a081525f61064460a0830188610604565b82810360208401526106568188610604565b604084019690965250509115156060830152151560809091015292915050565b634e487b7160e01b5f52604160045260245ffd5b5f82601f830112610699575f5ffd5b813567ffffffffffffffff8111156106b3576106b3610676565b604051601f8201601f19908116603f0116810167ffffffffffffffff811182821017156106e2576106e2610676565b6040528181528382016020018510156106f9575f5ffd5b816020850160208301375f918101602001919091529392505050565b5f5f60408385031215610726575f5ffd5b61072f836105c9565b9150602083013567ffffffffffffffff81111561074a575f5ffd5b6107568582860161068a565b9150509250929050565b5f5f5f60608486031215610772575f5ffd5b61077b846105c9565b9250602084013567ffffffffffffffff811115610796575f5ffd5b6107a28682870161068a565b925050604084013567ffffffffffffffff8111156107be575f5ffd5b6107ca8682870161068a565b9150509250925092565b5f5f5f606084860312156107e6575f5ffd5b6107ef846105c9565b9250602084013591506040840135801515811461080a575f5ffd5b809150509250925092565b600181811c9082168061082957607f821691505b60208210810361084757634e487b7160e01b5f52602260045260245ffd5b50919050565b5f82518060208501845e5f920191825250919050565b5f5f835461087081610815565b600182168015610887576001811461089c576108c9565b60ff19831686528115158202860193506108c9565b865f5260205f205f5b838110156108c1578154888201526001909101906020016108a5565b505081860193505b509195945050505050565b601f82111561091b57805f5260205f20601f840160051c810160208510156108f95750805b601f840160051c820191505b81811015610918575f8155600101610905565b50505b505050565b815167ffffffffffffffff81111561093a5761093a610676565b61094e816109488454610815565b846108d4565b6020601f821160018114610980575f83156109695750848201515b5f19600385901b1c1916600184901b178455610918565b5f84815260208120601f198516915b828110156109af578785015182556020948501946001909201910161098f565b50848210156109cc57868401515f19600387901b60f8161c191681555b50505050600190811b01905550565b604081525f6109ed6040830185610604565b82810360208401526109ff8185610604565b9594505050505056fea26469706673582212203e0b1366ef8152f67a0f0a348ba358b1c7f2c24beac1d217a8328b02698c909564736f6c634300081c0033",
  "linkReferences": {},
  "deployedLinkReferences": {}
}